:100000000C94FA070C94A71C0C94801C0C942208E6
:100010000C9422080C9422080C9422080C94F91CCD
:100020000C9422080C9422080C9422080C942208A8
:100030000C9422080C94D9150C9422080C942208D4
:100040000C94361C0C9422080C9422080C94220860
:100050000C9422080C9422080C9422080C94220878
:100060000C9416160C94220800407A10F35A00A043
:10007000724E18090010A5D4E80000E87648170071
:1000800000E40B54020000CA9A3B000000E1F505B1
:10009000000080969800000040420F000000A086FB
:1000A00001000000102700000000E803000000002D
:1000B0006400000000000A000000000001000000D1
:1000C00000002C76D888DC674F0823DFC1DFAE59EB
:1000D000E1B1B796E5E3E453C63AE651997696E87E
:1000E000E6C28426EB898C9B62ED407C6FFCEFBC02
:1000F0009C9F40F2BAA56FA5F490055A2AF75C932D
:100100006B6CF9676DC11BFCE0E40D47FEF520E662
:10011000B500D0ED902E0300943577050080841E45
:10012000080000204E0A000000C80C333333330FA0
:10013000986E12831141EF8D2114893BE65516CF3D
:10014000FEE6DB18D1844B381BF77C1D901DA4BB49
:10015000E424203284725E228100C9F124ECA1E5FE
:100160003D27000008010200FB010008050200FB1A
:10017000060008020400FB080008050400FB0D004F
:1001800008050400FB120008050400FB1700080521
:100190000400FB1C0008020200FB1E00080503000F
:1001A000FB230008050300FB280008030400FB2BC9
:1001B0000008030400FC2E0008020300FE300008C3
:1001C000010400FD310008010200FF3200080504AF
:1001D00000FB370008050400FB3C0008050300FB9A
:1001E000410008050400FB460008050400FB4B0025
:1001F00008050400FB500008050400FB5500080535
:100200000400FB5A0008050400FB5F000805040019
:10021000FB640008050400FB690008030200FC6C95
:100220000008040300FC700008050400FB750008CA
:10023000030400FC780008050400FB7D00080504A9
:1002400000FB820008050400FB870008050400FB92
:100250008C0008050400FB910008050400FB9600D3
:1002600008050400FB9B0008050400FBA00008052E
:100270000400FBA50008050400FBAA000805040013
:10028000FBAF0008050400FBB40008050400FBB93F
:100290000008050400FBBE0008050400FBC30008BD
:1002A000050400FBC80008050400FBCD0008050498
:1002B00000FBD20008050400FBD70008050400FB82
:1002C000DC0008050400FBE10008050400FBE60073
:1002D00008050400FBEB0008050400FBF00008051E
:1002E0000400FBF50008050400FBFA000805040003
:1002F000FBFF0008050400FB040108050400FB09DE
:100300000108050400FB0E0108030400FC110108AC
:10031000050400FB160108020400FB180108010493
:1003200000FF190108020300FB1B0108040400FC84
:100330001F0108050400FB240108040400FC280137
:1003400008050400FB2D0108040400FC3101080528
:100350000400FB360108050400FC3B01080504000D
:10036000FB400108050200FB450108060400FB4BA9
:100370000108050400FB500108050400FB550108B5
:10038000040400FC590108040400FC5D0108040495
:1003900000FC610108050400FC660108050400FC7E
:1003A0006B0108040400FC6F0108040400FC7301E5
:1003B00008050400FB780108040400FC7C01080423
:1003C0000400FC800108040400FC8401080404000B
:1003D000FC880108050400FC8D0108040400FC9160
:1003E0000108050400FB960108050200FB9B0108BB
:1003F000050400FBA00108020400FB0080808000CF
:1004000080A0A0A0E0A0E0A060C060C0408020402C
:100410008020C0C0E0A0608080408080804080401C
:10042000404080A040A040E0404080E0802020404C
:10043000808060A0A0A0C040C0404040C02040805C
:10044000E0C0204020C0A0A0E02020E080C020C06C
:100450006080E0A0E0E020408080E0A0E0A0E0E05C
:10046000A0E020C0800080400040802040804020EC
:10047000E000E08040204080E02040004040A0E0DC
:10048000806040A0E0A0A0C0A0C0A0C0608080802C
:1004900060C0A0A0A0C0E080E080E0E080E08080BC
:1004A0006080E0A060A0A0E0A0A0E0404040E0208C
:1004B0002020A040A0A0C0A0A080808080E0A0E07C
:1004C000E0A0A0A0E0E0E0A040A0A0A040C0A0C0AC
:1004D000808040A0A0E060C0A0E0C0A0608040207C
:1004E000C0E040404040A0A0A0A060A0A0A040402C
:1004F000A0A0E0E0A0A0A040A0A0A0A0404040E0BC
:10050000204080E0E0808080E0804020E0202020CB
:10051000E040A0E08040C060A0E080C0A0A0C0603B
:100520008080602060A0A06060A0C0602040E040AB
:100530004060A0E0204080C0A0A0A080008080801B
:1005400020002020A04080A0C0C0A0C0404040E0CB
:10055000E0E0E0A0C0A0A0A040A0A040C0A0A0C03B
:100560008060A0A060206080808060C060C040E0AB
:10057000404060A0A0A060A0A0E040A0E0E0E0A01B
:100580004040A0A0A0602040E060C0E0604080400B
:10059000608080008080C0402040C060C0000000BB
:1005A00000060001000001050200FC010003010437
:1005B00000FC020005050600FC060005050600FC1F
:1005C0000A0005050600FC0E0005050600FC1200E9
:1005D00001010200FC130002050300FC15000205E6
:1005E0000300FC170003030400FD190003030400CB
:1005F000FD1B0001020200001C0004010500FE1D9D
:100600000001010200001E0005050600FC22000595
:10061000050600FC260001050200FC270005050672
:1006200000FC2B0005050600FC2F0005050600FC5C
:10063000330005050600FC370005050600FC3B00FD
:1006400005050600FC3F0005050600FC4300050506
:100650000600FC470001040200FD480001040200FE
:10066000FD490003050400FC4B0004030500FD4D9B
:100670000003050400FC4F0005050600FC530005BF
:10068000050600FC570005050600FC5B0005050695
:1006900000FC5F0005050600FC630005050600FC84
:1006A000670005050600FC6B0005050600FC6F00F1
:1006B00005050600FC730005050600FC770005052E
:1006C0000600FC7B0005050600FC7F000505060012
:1006D000FC830005050600FC870005050600FC8B71
:1006E0000005050600FC8F0005050600FC930005CB
:1006F000050600FC970005050600FC9B00050506A5
:1007000000FC9F0005050600FCA30005050600FC93
:10071000A70005050600FCAB0005050600FCAF00C0
:1007200005050600FCB30005050600FCB70005053D
:100730000600FCBB0005050600FCBF000205030027
:10074000FCC10005050600FCC50002050300FCC74E
:100750000003020400FCC8000501060001C90001F5
:10076000010200FCCA0004040500FDCC00040505DC
:1007700000FCCF0004040500FDD10004050500FCC9
:10078000D40004040500FDD60003050400FCD800D5
:1007900004050500FDDB0004050500FCDE00010486
:1007A0000200FDDF0002050300FDE1000405050075
:1007B000FCE40001050200FCE50005040600FDE87C
:1007C0000004040500FDEA0004040500FDEC00043B
:1007D000050500FDEF0004050500FDF20004040519
:1007E00000FDF40004040500FDF60005050600FC0C
:1007F000FA0004040500FDFC0004040500FDFE00F1
:1008000005040600FD010104040500FD03010405C3
:100810000500FD060104040500FD080103050400B0
:10082000FC0A0101050200FC0B0103050400FC0D9C
:100830000105030600FDE8A057D5F500FD3E5F80E9
:1008400088888880F4BF2E80806A409580AA805D69
:1008500000C0F08008888800FC631F80F8F87F0FD4
:1008600080F87E1F808C7E1080FC3E1F80FC3F1F26
:1008700080F8421080FC7F1F80FC7E1F8090B02A91
:1008800022F0F088A8F84E0200FD6F0F80FC7F1860
:1008900080F47D1F00FC210F80F4631F00FC3F0FDC
:1008A00080FC3F0800FC2F1F808C7F1880F9084FC8
:1008B0008078852F808DB1688084210F80FD6B5AF0
:1008C00080FC631880FC631F80FC7F0800FC633F92
:1008D00080FC7F2900FC3E1F80F90842008C631FCA
:1008E000808C62A200AD6B5F808A88A8808C5442A5
:1008F00000F87F0F80EAC082082080D5C054F880BD
:10090000F1FF8F99F0F88F1F99F0FF8F6BA4F99F7B
:10091000108F9990F055C08AF990F8FD6310F999FD
:10092000F99FF99F80F99F20F888471F27C8420048
:10093000999F99978C6BF09669999F102E8F2B2217
:10094000F889A80FE04A616E202036203230313914
:100950000042542D536F66742032303138007600D7
:1009600053706F742057656C6465720041726475D2
:10097000696E6F204E616E6F00212121212121219E
:1009800021212121212121002020746F6F206869FD
:1009900067682100204D4F542054656D70206973A5
:1009A0000021212121212121212121212121210079
:1009B00054656D703A004D4F54002D002D0050616C
:1009C0007573653A00527074733A0057656C643AF7
:1009D0000050617573653A0050726557656C643AF2
:1009E00000FB036201207E0652657065617473002E
:1009F00050756C73650036089D05207E074D616E4D
:100A000075616C2057656C64696E670020205075B5
:100A10006C736520436F756E74200020003E004D9E
:100A200061696E206D656E750050756C7365004D63
:100A30006F64650056616C756500466163746F7222
:100A400079205265736574005361766520436F6E3B
:100A50006669670020746F20626520736176656443
:100A600021004E6F206368616E67652069730053D3
:100A7000617665204F4B00005EBCE2613FDD83C2C2
:100A80009C7E20A3FD1F41009D23BE46DB65F88CA4
:100A900011AF32CA57E97400000000003E5B4F5BA3
:100AA0003E3E6B4F6B3E1C3E7C3E1C183C7E3C1811
:100AB0001C577D571C1C5E7F5E1C00183C1800FFF5
:100AC000E7C3E7FF0018241800FFE7DBE7FF304823
:100AD0003A060E2629792926407F050507407F051D
:100AE000253F5A3CE73C5A7F3E1C1C08081C1C3E14
:100AF0007F14227F22145F5F005F5F06097F017F02
:100B0000006689956A606060606094A2FFA29408A4
:100B1000047E040810207E201008082A1C08081CE7
:100B20002A08081E101010100C1E0C1E0C30383E27
:100B30003830060E3E0E06000000000000005F0088
:100B4000000007000700147F147F14242A7F2A1254
:100B5000231308646236495620500008070300003A
:100B60001C2241000041221C002A1C7F1C2A08086C
:100B70003E0808008070300008080808080000607F
:100B8000600020100804023E5149453E00427F406B
:100B90000072494949462141494D331814127F10CA
:100BA00027454545393C4A49493141211109073614
:100BB00049494936464949291E00001400000040B1
:100BC00034000000081422411414141414004122AB
:100BD000140802015909063E415D594E7C1211125A
:100BE0007C7F494949363E414141227F4141413E56
:100BF0007F494949417F090909013E414151737FBC
:100C00000808087F00417F41002040413F017F08E4
:100C10001422417F404040407F021C027F7F040835
:100C2000107F3E4141413E7F090909063E41512165
:100C30005E7F09192946264949493203017F01038C
:100C40003F4040403F1F2040201F3F4038403F630F
:100C50001408146303047804036159494D43007F69
:100C60004141410204081020004141417F0402013A
:100C700002044040404040000307080020545478DC
:100C8000407F284444383844444428384444287F2A
:100C9000385454541800087E090218A4A49C787F84
:100CA0000804047800447D40002040403D007F104F
:100CB00028440000417F40007C047804787C0804CC
:100CC00004783844444438FC182424181824241880
:100CD000FC7C08040408485454542404043F44246D
:100CE0003C4040207C1C2040201C3C4030403C4488
:100CF000281028444C9090907C4464544C44000844
:100D00003641000000770000004136080002010271
:100D100004023C2623263C1EA1A161123A40402039
:100D20007A385454555921555579412254547842B2
:100D3000215554784020545579400C1E5272123976
:100D4000555555593954545459395554545800002F
:100D5000457C410002457D420001457C407D1211E9
:100D6000127DF0282528F07C545545002054547CF1
:100D7000547C0A097F4932494949323A4444443A49
:100D8000324A4848303A4141217A3A42402078007C
:100D90009DA0A07D3D4242423D3D4040403D3C241F
:100DA000FF2424487E4943662B2FFC2F2BFF092963
:100DB000F620C0887E090320545479410000447D08
:100DC000413048484A32384040227A007A0A0A7252
:100DD0007D0D19317D2629292F28262929292630FC
:100DE000484D4020380808080808080808382F101F
:100DF000C8ACBA2F102834FA00007B000008142A6F
:100E0000142222142A14085500550055AA55AA5533
:100E1000AAFF55FF55FF000000FF00101010FF0053
:100E2000141414FF001010FF00FF1010F010F01445
:100E30001414FC001414F700FF0000FF00FF14144A
:100E4000F404FC141417101F10101F101F14141496
:100E50001F00101010F0000000001F101010101FD5
:100E600010101010F010000000FF101010101010E3
:100E7000101010FF10000000FF140000FF00FF0022
:100E8000001F10170000FC04F4141417101714149A
:100E9000F404F40000FF00F714141414141414F7ED
:100EA00000F7141414171410101F101F141414F446
:100EB000141010F010F000001F101F0000001F148D
:100EC000000000FC140000F010F01010FF10FF14E0
:100ED0001414FF141010101F00000000F010FFFF8A
:100EE000FFFFFFF0F0F0F0F0FFFFFF000000000058
:100EF000FFFF0F0F0F0F0F3844443844FC4A4A4A93
:100F0000347E02020606027E027E02635549416378
:100F10003844443C04407E201E2006027E02029992
:100F2000A5E7A5991C2A492A1C4C7201724C304A2B
:100F30004D4D303048784830BC625A463D3E4949B4
:100F400049007E0101017E2A2A2A2A2A44445F445C
:100F50004440514A444040444A51400000FF01038C
:100F6000E080FF000008086B6B0836123624360656
:100F70000F090F0600001818000000101000304084
:100F8000FF0101001F01011E00191D1712003C3C4A
:100F90003C3C000000000000000000240027002A64
:100FA00000000000002300260029000000000800C7
:100FB000020100000304070000000000000000011F
:100FC00002040810204080010204081020010204DD
:100FD00008102000000000250028002B0004040455
:100FE00004040404040202020202020303030303D2
:100FF0000302922811241FBECFEFD8E0DEBFCDBF81
:1010000014E0A0E0B1E0E4E3F3E602C005900D9245
:10101000A035B107D9F725E0A0E5B4E001C01D92E5
:10102000A130B207E1F717E0CAEFD7E004C021977B
:10103000FE010E94742DC93FD107C9F70E94EB1D24
:101040000C9498310C940000FC01828D8F3F19F4B0
:10105000838D8F3F11F128E030E090E8A1A1B2A18B
:101060004C9184A1809584238C93A78DB0A183A1FA
:10107000492F462319F04C91842B03C04C91809545
:1010800084238C93A1A1B2A14C9184A1842B8C9335
:1010900096952150310911F708956EBD00000DB4E9
:1010A00007FEFDCF8EB50895FC0177FD68C08085F1
:1010B0009185681779070CF062C057FD60C0828582
:1010C0009385481759070CF05AC08589823059F02A
:1010D0008330B1F08130D1F48FE290E0861B970B22
:1010E000BA01AC0113C083E590E0FC01E61BF70BED
:1010F000BF018FE290E0FC01E41BF50BAF0106C0DD
:1011000083E590E0841B950BAB01BC016435710550
:10111000B0F54033510598F5CA01E3E09595879500
:10112000EA95E1F747705527232BA1F024E5289F86
:10113000F001299FF00D11246E0F7F1FFB01ED5F61
:10114000FE4F81E090E001C0880F4A95EAF7908158
:10115000892B14C024E5289FF001299FF00D11244C
:101160006E0F7F1FFB01ED5FFE4F81E090E001C03D
:10117000880F4A95EAF780959081892380830895A6
:10118000089580E090E00895FC01E55AFF4F108239
:10119000319623E0208331961082349781E090E0ED
:1011A000918380830895FC0165A591E0692785A15D
:1011B0000C947A198091000190910101892B41F4DE
:1011C000E0915504F09156048385882309F476C094
:1011D00080910001909101018230910589F12CF4F8
:1011E000009759F00197D1F008958330910509F4E3
:1011F00050C0049709F460C008958CE00E94511912
:10120000E0915504F0915604892B09F064C0838560
:10121000882309F460C01092630459C0809163046C
:101220008F5F80936304E0915504F0915604948598
:10123000891708F46CC01092630482E090E063C0E8
:101240008CE00E945119892B21F481E08093630482
:101250003EC0809163048F5F80936304E0915504E6
:10126000F09156049585891708F451C060E08CE030
:101270000E947A19E0915504F091560496859130B8
:10128000D9F1809152048F5F809352048917A0F5A1
:1012900036C0809163048F5F80936304E0915504AE
:1012A000F09156049785891790F11092630410927B
:1012B000010110920001089560E00AC010926304D9
:1012C00082E090E0909301018093000181CF61E082
:1012D0008CE00C947A19809163048F5F809363048F
:1012E00093858917A0F060E08CE00E947A19109233
:1012F000630481E090E007C084E090E004C01092B5
:10130000630483E090E090930101809300010895CD
:10131000CF92DF92EF92FF920F931F93CF93DF93C1
:10132000C0915304D09154040E942A1C6B017C018B
:101330008B85882359F089859A8502979A878987B2
:1013400089859A8597FF02C01A86198688810E942E
:1013500051192B8130E08217930711F413E001C07B
:1013600010E089810E9451192B8130E08217930788
:1013700011F481E018278E819F81811B80FF12C0AC
:10138000212F110F330B3F832E832C813D818270DF
:10139000082E000C990B0197820F931F9D838C835D
:1013A00081E001C080E09B85992361F0882351F0A2
:1013B00089859A85883E9B4028F489859A85499637
:1013C0009A8789878A81882309F45BC04A895B8967
:1013D0006C897D8997018601041B150B260B370B41
:1013E0000A3011052105310508F44BC0CA8ADB8A91
:1013F000EC8AFD8A0E9451192B8130E082179307F5
:1014000061F48F8598890196988B8F87893791052C
:1014100020F083E090E09D878C878A810E9451199B
:101420003B8121E0232730E082179307F9F48F8571
:101430009889892BC9F08C859D85039719F484E0E0
:1014400090E007C08989823040F08C3368F486E0F0
:1014500090E09D878C87198A07C08E85811102C014
:1014600081E001C08CE3898B188A1F8689898823D3
:1014700041F08250898B811104C085E090E09D8706
:101480008C87DF91CF911F910F91FF90EF90DF90AC
:10149000CF9008950C940F2EEF92FF920F931F930D
:1014A000CF93DF93EC0100915504109156047C0119
:1014B00086E2E80EF11C41E150E0B801C7010E944C
:1014C000AC2E892B01F191E1F701D80101900D9229
:1014D0009A95E1F780915504909156040E946818FE
:1014E00082E08C8B1D861C868FE090E09F878E8724
:1014F0006FE67AE0CE01DF91CF911F910F91FF90BF
:10150000EF900C94551D81E08C8B1D861C868FE01E
:1015100090E09F878E8762E67AE0CE010E94D71D19
:1015200064E57AE0CE01DF91CF911F910F91FF909A
:10153000EF900C94D71DFC0190810180F281E02D89
:10154000892F809560FF12C0F894228182238283C4
:101550008181892B8183A3E2B0E01197F1F7828129
:10156000982B9283789487ED90E011C0F8942281B3
:10157000822382838181892B8183AFEFB0E0119731
:10158000F1F78281982B928378948FE090E0019715
:10159000F1F70895FC0190810180F281E02DF8942B
:1015A0008181292F20958223818378948DE743E0E0
:1015B00050E0815021F1DA011197F1F730813923A0
:1015C000C1F3F8948281822382838181892B818374
:1015D0007894ABE7B7E01197F1F7F894818128236D
:1015E0002183A3E1B1E01197F1F78081982381E095
:1015F00009F080E07894E3E6F6E03197F1F708959A
:101600006F927F928F929F92AF92BF92CF92DF9212
:10161000EF92FF920F931F93CF93DF931F92CDB75B
:10162000DEB78C01F42EFC018681978159830E94DC
:101630009D1740E06EEBF801868197810E945B1751
:101640006F2C5981752E5301F9E0AF0EB11CF801D2
:101650008680978088E0C82ED12CEE24E394F12C6C
:10166000C4010E94CA178111FE28EE0CF1E0CF1AC6
:10167000D108B1F7F301F1923F01EA15FB0539F703
:10168000F801868197810E94CA0A91E0813009F0B1
:1016900090E0892F0F90DF91CF911F910F91FF90D4
:1016A000EF90DF90CF90BF90AF909F908F907F9002
:1016B0006F9008950F931F93CF93DF93CDB7DEB74D
:1016C0002B970FB6F894DEBF0FBECDBF8C01FC0187
:1016D000868197816A877B870E94CA0A6A857B8593
:1016E000882309F1AE014F5F5F4FC8010E94000BD4
:1016F0008823C9F068E0CE0101960E9444179985BD
:10170000891311C08D818F3361F020F48F3159F42A
:1017100089E00CC08F3519F08F3739F004C08BE0A9
:1017200005C08AE003C080E001C08CE02B960FB6B4
:10173000F894DEBF0FBECDBFDF91CF911F910F9107
:10174000089528EF31E0E3E0F1E0DF01A9011D9207
:1017500041505040E1F7DC011D961C921E921C97EF
:101760001F961C921E921E9708951F93CF93DF938E
:10177000EC01162F60E08C8D0E947A198E8D181660
:101780001CF460E00E947A19612FCE010E942408A7
:101790008E8D181634F461E0DF91CF911F910C9477
:1017A0007A19DF91CF911F910895CF92DF92EF9236
:1017B000FF921F93CF93DF93EC0183E0C82E81E06B
:1017C000D82E10E0612F6064CE010E94B50B60E856
:1017D000CE010E94B50B61E08C8D0E947A198E8D2E
:1017E00018161CF460E00E947A19E12CF12CF60125
:1017F000EE0DFF1D6081CE010E9424088FEFE81AD4
:10180000F80A84E5E816F10491F78E8D18161CF499
:1018100061E00E947A191F5F84E5C80ED11C163062
:1018200089F660E4CE01DF91CF911F91FF90EF9098
:10183000DF90CF900C94B50BEF92FF920F931F9314
:10184000CF93DF93EC010E94A10B60E070E0CE012A
:101850000E94001681E08C8BEE24E394F12CF98A2F
:10186000E88A1B8A1A8A8AE090E09D878C871F8607
:101870001E8668E47AE0CE010E94551DE881F98158
:10188000068CF78DE02D01E010E023E530E04AE022
:1018900050E060E070E0CE010995CE010E944C0A54
:1018A000CE010E94D50B60ED77E080E090E00E94D1
:1018B000F01BFE01E55AFF4F1082319683E08083D2
:1018C00031961082C75ADF4FF982E882DF91CF91BB
:1018D0001F910F91FF90EF9008950F931F93CF9357
:1018E0008C01C62F67FDCFE761E2C8010E94B50BEE
:1018F0006C2F6068C8010E94B50B60E2C801CF91EF
:101900001F910F910C94B50BFC0167A50C946D0C05
:1019100008958823A1F0E0915504F0915604808544
:10192000882369F084EF91E00E94E6196FE070E08F
:1019300080E090E00E94F01B8DE00C94CE1C089596
:10194000FC01E35AFF4F2081422F50E0BC01ECE044
:101950002E9F600D711D1124FB01EA59FF4F01906C
:10196000F081E02D309731F4DB01A859BF4F2C9165
:1019700020FF1EC02CE0249FD001259FB00D112414
:10198000A80FB91FA859BF4F2D913C91A90155959A
:10199000479520FF0AC0DC01A40FB51F2D913C9193
:1019A000E20FF31F0190F081E02D840F951F099441
:1019B0000895CF92DF92EF92FF920F931F93CF93F0
:1019C000DF93EC01FC01E35AFF4F8081FE019CE0B4
:1019D000899FE00DF11D1124E25AFF4F0081118112
:1019E000E280F380C480D580CE010E94A10B60E02C
:1019F00070E0CE010E94001681E090E0998B888B08
:101A00001B8A1A8A1D861C861F861E86B801CE0177
:101A10000E94791DE881F981068CF78DE02D01E0A7
:101A200010E023E530E048E050E060E070E0CE01F7
:101A3000099585E090E09D878C878FE090E09F87F7
:101A40008E87E2E0EE16F10491F01CF4F7FC14C06E
:101A50000BC083E0E816F10439F094E0E916F104D4
:101A600059F46FE27AE005C064E37AE002C069E20B
:101A70007AE0CE010E94551D82E08C8B8E01075CBE
:101A80001F4FE4E0EE16F10444F4F1E0EF16F10428
:101A9000BCF5E114F10431F04EC084E0E816F10425
:101AA00099F049C08AE090E09D878C8789E190E0B9
:101AB0009F878E87F6018081811103C08EE194E0BB
:101AC00014C08BE194E011C08AE090E09D878C8780
:101AD00089E190E09F878E87F6018081811103C0A4
:101AE00088E294E002C082E294E09F938F931F9378
:101AF0000F930E94C02E0F900F900F900F9020C058
:101B000083E290E09D878C878FE090E09F878E87AF
:101B1000F60180811F928F938FE294E09F938F93C1
:101B20001F930F930E94C02E0F900F900F900F9055
:101B30000F900F9005C063E374E0C8010E94B92EB6
:101B4000B801CE010E94791D81E08C8BF2E0EF1686
:101B5000F10419F183E0E816F10409F080C01F9246
:101B600087EF8F938BE394E09F938F931F930F9353
:101B70000E94C02E8AE090E09D878C8788E290E0EA
:101B80009F878E87B801CE010E94791D0F900F901C
:101B90000F900F900F900F9062C08AE090E09D87A9
:101BA0008C8788E290E09F878E87F601608170E0E5
:101BB00080E090E00E94E92B20E030E040E251E438
:101BC0000E949E2C0E94B12B6B017C0128EE33E019
:101BD00040E050E00E94412D822F90E068E17CEFD0
:101BE000869FA001879F500D969F500D1124C40E13
:101BF000D51E211108C01C141D04CCF4DF92CF9215
:101C000087E494E007C0C114D10489F41F928F9334
:101C10008FE394E09F938F931F930F930E94C02EA6
:101C20000F900F900F900F900F900F9014C0DF92B5
:101C3000CF921F928F9383E494E09F938F931F938F
:101C40000F930E94C02E8DB79EB708960FB6F894DA
:101C50009EBF0FBE8DBFB801CE010E94791DCE017F
:101C6000DF91CF911F910F91FF90EF90DF90CF9078
:101C70000C94D50B7F928F929F92AF92BF92CF928E
:101C8000DF92EF92FF920F931F93CF93DF93EC01BC
:101C90000E94A10B60E070E0CE010E94001681E07E
:101CA0008C8B81E090E0998B888B1B8A1A8A8FE05D
:101CB00090E09D878C871F861E866FE17AE0CE01BB
:101CC0000E94551DE881F981068CF78DE02D01E019
:101CD00010E023E530E048E050E060E070E0CE0145
:101CE00009957E018AEFE81A8EEFF80A10E05E018E
:101CF000EBE5AE0EB11C4E01FDE58F0E911CCC2420
:101D0000C394D12C9CE0792EF5010081010FF701DD
:101D100081917F011D861C8690E09F878E87F4014C
:101D20008081081307C0198A188ADB8ACA8A6DE184
:101D30007AE006C0D98AC88A1B8A1A8A6BE17AE0DF
:101D4000CE010E94551DFE01709EE00DF11D112473
:101D5000E25AFF4F60817181CE010E94791D1F5FA1
:101D6000143091F6CE01DF91CF911F910F91FF902A
:101D7000EF90DF90CF90BF90AF909F908F907F902B
:101D80000C94D50BEF92FF920F931F93CF93DF9399
:101D9000EC018B0160E070E00E94001682E08C8B09
:101DA0007E0189E3E80EF11CF80160817181828176
:101DB0009381870121E041E00E94A32883E290E023
:101DC0009D878C8782E290E09F878E87B701CE0146
:101DD0000E94791DCE010E94D50B81E08C8BDF9192
:101DE000CF911F910F91FF90EF9008950F931F9344
:101DF000CF938C01C62F61E20E94B50B6C2FC730C8
:101E000008F467E06061C8010E94B50B60E2C80198
:101E10000E94B50BC801CF911F910F910C94D50B67
:101E2000FC0160A90C94F60ECF92DF92FF920F9303
:101E30001F93CF93DF93EC010E94A10B60E070E051
:101E4000CE010E940016FF24F394FC8ACC24C39494
:101E5000D12CD98AC88A1B8A1A8A83E090E09D8790
:101E60008C871F861E866AE37AE0CE010E94551D8C
:101E7000E881F981068CF78DE02D01E010E023E583
:101E800030E04AE050E060E070E0CE010995DE010C
:101E9000969681E1FD0111928A95E9F786E0EEE7D9
:101EA000F3E001900D928A95E1F7FCA6FDA6FEA64F
:101EB0008EE18FA784E088AB92E099AB95E09AAB76
:101EC0008BABFCAA8AE08DAB88E28EABCE010E9480
:101ED0004C0ACE010E94D308CE010E94840CCE0190
:101EE0000E94100FCE010E94D50B60ED77E080E0DC
:101EF00090E00E94F01BFE01E55AFF4F10823196E0
:101F000083E0808331961082C75ADF4FD982C8821E
:101F1000DF91CF911F910F91FF90DF90CF900895A7
:101F2000FC01F894248135818085823021F4C90137
:101F30008170992705C0843031F4C90183709927D5
:101F40009583848302C015821482789480858430BE
:101F500029F4359527953595279504C0823011F4DD
:101F6000359527958385882329F081859285892F4A
:101F7000992702C080E090E037FF03C080959095DC
:101F80000895232B11F00196089580E090E00895C4
:101F90000895FC016370658B84819581268137816A
:101FA000613039F0633029F0918780873387228749
:101FB0000895318720879387828708952F923F92D3
:101FC0004F925F926F927F928F929F92AF92BF9249
:101FD000CF92DF92EF92FF920F931F93CF93DF93F5
:101FE000CDB7DEB76C970FB6F894DEBF0FBECDBF8E
:101FF0009C8F8B8F5B011A011F830E833701C9826F
:10200000DC0158964D915C9159974115510509F0A5
:10201000E5C018968D919C911997681779070CF077
:10202000CAC11A968D919C911B97281639060CF0FF
:10203000C2C18C2C912CFB0136E0C39EE00DF11D3A
:102040001124FB87EA871E161F060CF0B4C1C401D9
:1020500033E0880F991F3A95E1F79D878C87820DB1
:10206000931D181619060CF0A6C157968C91811174
:1020700003C0203B08F02F5FAB8DBC8DED91FC9130
:1020800011970284F385E02DCD012A8F09952A8DC1
:10209000B5E02B9F90011124F5013596FF87EE875F
:1020A000BB82AA822501A9014A195B09598B488B79
:1020B000C10108969B8B8A8BE889F989E40DF51D8F
:1020C000E956F54F9491988761013D822C82A8854D
:1020D000A0FF13C0AB8DBC8DED91FC91B981B130E7
:1020E00031F40484F585E02D2E813F8116C00684ED
:1020F000F785E02DEE80FF801AC0EE81FF816E161D
:102100007F06F1F0AB8DBC8DED91FC91B981B130C2
:1021100051F40484F585E02D9301A601B2018B8D65
:102120009C8D09950DC00684F785E02D730184010F
:1021300094014C815D816A817B818B8D9C8D099599
:10214000E885E695E887FFEFCF1ADF0A2C813D810D
:10215000280D391D3D832C834A895B89C416D50619
:1021600009F0B5CF5FEF451A550A8A819B81880D2A
:10217000991D9B838A83AE85BF854A165B0609F04D
:102180009BCFEE81FF816E167F0609F4F2C0EB8DC6
:10219000FC8DA081B181F981F13079F4B5016B5FDB
:1021A0007F4F5096ED91FC915197830128E030E0EC
:1021B000A1018B8D9C8D0995DCC06A857B85681992
:1021C00079091E96ED91FC911F9773010C851D8571
:1021D0009401A1018B8D9C8D0995CBC0FA01349699
:1021E0009491329765917491291BCB01B7E02B9F95
:1021F000800D911D1124FA01259134913B8B2A8B7E
:10220000FC01459154915B834A83FC013296C49052
:10221000319654915E87329614913196D49089818B
:10222000823058F0612E012E000C7708AD2D0D2C58
:10223000000CBB0BB987A88704C019861886612CCF
:10224000712CAB8DBC8DED91FC9111970284F385BF
:10225000E02DCD010995B9818B2E912C689CC00190
:10226000699C900D789C900D1124FC01EA0DFB1DDA
:10227000FD87EC871C82712C612CE12F110FFF0B65
:1022800095012E0F3F1F3B872A87AC0CB11CA5017F
:102290004E0F5F1F5F8B4E8BC1018D0D911DD7FCC3
:1022A0009A95998F888F4E85641608F062C0862DA6
:1022B00090E048855985480F591F489D9001499DD8
:1022C000300D589D300D1124D901A20DB31DB98BCD
:1022D000A88BAA84BB844C845D84DC80BA85DB1A1D
:1022E000E88DF98DE80FF91FFD8BEC8B8D2D8A0D94
:1022F0002E893F89A216B306B9F1877061F48A81ED
:102300009B810196EA89FB89AA81BB81EA0FFB1FA9
:1023100074909B838A8377FE20C0AB8DBC8DED913A
:10232000FC91B981B13061F40484F585E02D2E81F2
:102330003F814C895D89B5018B8D9C8D09950DC0C0
:102340000684F785E02DEE80FF80840194014889A2
:102350005989B2018B8D9C8D0995770CEFEFAE1AE0
:10236000BE0A480C591CC2CF3C813C0D3C8363948F
:102370009ACFAB8DBC8DED91FC9111970688F789B2
:10238000E02DCD016C960FB6F894DEBF0FBECDBF29
:10239000DF91CF911F910F91FF90EF90DF90CF9041
:1023A000BF90AF909F908F907F906F905F904F9075
:1023B0003F902F9009946C960FB6F894DEBF0FBE35
:1023C000CDBFDF91CF911F910F91FF90EF90DF90E4
:1023D000CF90BF90AF909F908F907F906F905F90C5
:1023E0004F903F902F900895AF92BF92CF92EF926F
:1023F000FF920F931F93CF93DF93EC01262F888DCD
:10240000998D009709F040C06A3059F41D861C86EA
:102410002C898E859F8538E0239F800D911D112486
:1024200041C06D3009F4AAC08E898823C1F03C896F
:102430008C859D8546E0349F800D911D1124488533
:102440005985481759075CF41D861C868E859F8523
:1024500048E0349F800D911D11249F878E87EA8864
:10246000FB88088919894E855F856C857D85CC88B8
:10247000CE010E94DE0F2C898C859D8536E0239F3E
:10248000800D911D112442C06A3079F41D861C868E
:102490002C89FC013696E4918E859F852E9F800DB8
:1024A000911D11249F878E8769C06D3009F466C025
:1024B000FC0134963491631708F460C03196E491BE
:1024C000E61708F45BC0FC013296A590B490462F45
:1024D00050E0431B510937E0349FB001359F700D28
:1024E0001124A60EB71EF501329634913196E4916F
:1024F000332311F0E1110DC0F5013496E4912C89DC
:102500008C859D85E29F800D911D11249D878C8770
:1025100035C0F501359644915E89552311F16C89DA
:10252000E32FF0E0E40FF11D47FDFA956E9FD00117
:102530006F9FB00D11244C855D854A0F5B1FE885A8
:10254000F985E417F5076CF41D861C86FC013696A8
:10255000E4918E859F856E9F800D911D11249F872C
:102560008E87EA88FB88088919894E855F856C8586
:102570007D85CC88CE010E94DE0FBECF81E090E049
:10258000DF91CF911F910F91FF90EF90CF90BF906F
:10259000AF9008956F927F928F929F92AF92BF9269
:1025A000CF92DF92EF92FF920F931F93CF93DF931F
:1025B000EC014B015A0169013801E881F98102847B
:1025C000F385E02D0995E881F9810288F389E02DF2
:1025D00087019601A501B401CE010995E881F98131
:1025E000A501460D571D415051090288F389E02D80
:1025F0009601B401CE010995E881F9810088F1893D
:10260000E02D9301A501B401CE010995E881F9817E
:10261000C80CD91CB601615071090088F189E02D00
:102620009301A501CE010995E881F9810688F78912
:10263000E02DCE01DF91CF911F910F91FF90EF9090
:10264000DF90CF90BF90AF909F908F907F906F90D2
:102650000994CF92DF92EF92FF920F931F93CF9343
:10266000DF9300D000D000D0CDB7DEB76C01DC0125
:10267000ED91FC916217730789F4041715072CF488
:10268000942F852FA801092F182F041B150B9801D3
:102690002F5F3F4F048CF58DE02D12C0401751077E
:1026A00009F5261737072CF4962F872FB901292F04
:1026B000382F261B370B2F5F3F4F068CF78DE02DF1
:1026C0008701C601099526960FB6F894DEBF0FBEA6
:1026D000CDBFDF91CF911F910F91FF90EF90DF90D1
:1026E000CF9008950284F385E02D2D833E834B83A4
:1026F0005C8369837A830995D601ED91FC91048806
:10270000F589E02D2D813E814B815C8169817A8143
:10271000C6010995D601ED91FC910688F789E02D57
:10272000C60126960FB6F894DEBF0FBECDBFDF916F
:10273000CF911F910F91FF90EF90DF90CF90099470
:10274000EF92FF920F931F93DC01ED91FC91119793
:102750001A960D911C911B9718962D913C911997E3
:1027600000A0F1A1E02D7B0140E050E060E070E0CE
:1027700009951F910F91FF90EF9008954F925F92EE
:102780006F927F928F929F92AF92BF92CF92DF9281
:10279000EF92FF920F931F93CF93DF9300D0CDB7AB
:1027A000DEB76C015A0139014801DC01ED91FC9161
:1027B0000284F385E02D69837A8309956981462E29
:1027C0007A81572E640C751CD601ED91FC9146144C
:1027D00057046CF40088F189E02D87019401A5016C
:1027E000B201C6010995BFEF4B1A5B0AEDCF06880F
:1027F000F789E02DC6010F900F90DF91CF911F91C7
:102800000F91FF90EF90DF90CF90BF90AF909F908F
:102810008F907F906F905F904F900994AF92BF928E
:10282000CF92DF92EF92FF920F931F93CF93DF939C
:1028300000D000D0CDB7DEB75C016901DC01ED91BD
:10284000FC910284F385E02D4B835C8369837A835A
:102850000995D501ED91FC9169817A819B012C0D3F
:102860003D1D215031090488F589E02D78014B8107
:102870005C818A01C5010995D501ED91FC9106881D
:10288000F789E02DC5010F900F900F900F90DF9109
:10289000CF911F910F91FF90EF90DF90CF90BF905D
:1028A000AF900994AF92BF92CF92DF92EF92FF92D6
:1028B0000F931F93CF93DF9300D000D0CDB7DEB737
:1028C0005C016901DC01ED91FC910284F385E02D4E
:1028D0004B835C8369837A830995D501ED91FC91E3
:1028E0004B815C81C40ED51EB1E0CB1AD10804889F
:1028F000F589E02D7801860169817A819B01C50106
:102900000995D501ED91FC910688F789E02DC50167
:102910000F900F900F900F90DF91CF911F910F911B
:10292000FF90EF90DF90CF90BF90AF900994089503
:10293000EF92FF920F931F93DC01ED91FC9100A0A9
:10294000F1A1E02D09951F910F91FF90EF9008954F
:102950000F931F93DC01ED91FC91068CF78DE02D18
:1029600009951F910F9108950F931F93DC01ED912D
:10297000FC91048CF58DE02D09951F910F91089520
:10298000DC01ED91FC910084F185E02D099408951E
:102990002F923F924F925F926F927F928F929F926F
:1029A000AF92BF92CF92DF92EF92FF920F931F935D
:1029B000CF93DF9300D01F92CDB7DEB74C017B835E
:1029C0006A836A01590117019801241B350B37FFEF
:1029D00003C0319521953109C5014A815B81841B72
:1029E000950B97FF03C091958195910951E059830B
:1029F0008217930714F019820BC09A2D8B2D580162
:102A0000092F182F9A818B81DB82CA82C92ED82E7A
:102A10008A819B81A816B9065CF49C2D8D2D6801D6
:102A2000092F182F9A818B81BB82AA82A92EB82EDA
:102A30002501AA81BB814A1A5B0A38016C187D08FE
:102A400077FE03C0719461947108720157FE03C050
:102A5000BFEFEB1AFB0AF594E794C016D1061CF001
:102A60000FEF1FEF1FC001E010E01CC0D401ED917B
:102A7000FC91B9810484F585E02D9101BB23C1F05F
:102A80004A815B81B601C4010995E618F708F7FE93
:102A900004C0C00ED11EE40CF51CEA81FB81319606
:102AA000FB83EA834A815B81A416B506FCF604C069
:102AB000A6016A817B81E7CF0F900F900F90DF9185
:102AC000CF911F910F91FF90EF90DF90CF90BF902B
:102AD000AF909F908F907F906F905F904F903F90BE
:102AE0002F90089508958FEF9FEF08958FEF9FEF38
:102AF00008958091D20490E091958195910908956F
:102B000085ED8093BC008091BC0084FDFCCF1092C9
:102B1000AC04089540918604262F30E0240F311D27
:102B200021323105DCF42091AC042430C9F4FC01DD
:102B300080E090E0861758F4309186042191DC0102
:102B4000AC59BB4FA30FB11D2C930196F3CF8091CD
:102B50008604680F6093860480E0089581E00895FC
:102B600082E00895CF93DF9300D0CDB7DEB7CB01DD
:102B7000642F49835A830E948A154981842F5A8180
:102B8000952F0F900F90DF91CF910895CF93DF9302
:102B90001F92CDB7DEB7698361E0CE0101960E9436
:102BA0008A1581E090E00F90DF91CF9108950E9407
:102BB000A72E1F920F920FB60F9211242F933F93BF
:102BC0004F935F936F937F938F939F93AF93BF9335
:102BD000EF93FF93E0915004F09151040995FF9118
:102BE000EF91BF91AF919F918F917F916F915F9185
:102BF0004F913F912F910F900FBE0F901F901895FE
:102C0000FC01808D918D6115710531F0892B59F48E
:102C100086859785069605C0892B29F08685978538
:102C2000069797878687718F608F08951F920F92FE
:102C30000FB60F9211242F933F934F935F936F938F
:102C40007F938F939F93AF93BF93EF93FF93809165
:102C5000B900887F803609F49CC068F5883209F491
:102C60005BC090F4803109F454C038F4882309F42F
:102C7000F6C0883009F44DC0F6C0883109F44CC064
:102C8000803209F45DC0EFC0803409F468C048F4B4
:102C9000803309F455C0883309F0E5C08093AB0454
:102CA000D8C0803509F44FC0883509F45DC0883438
:102CB00009F0D9C0D6C0883909F4C7C0A8F488374C
:102CC00009F467C038F4883609F463C0803709F422
:102CD00060C0C9C0883809F4B8C0803909F45FC041
:102CE000803809F0C0C05BC0803B09F486C038F46E
:102CF000803A09F466C0883A09F47FC0B4C0803CC9
:102D000009F4A7C0883C09F4A4C0883B09F48AC030
:102D1000AAC08091D10410C09091D0048091CF04BA
:102D2000981770F5E091D00481E08E0F8093D00465
:102D3000F0E0E155FB4F80818093BB0085EC86C0BD
:102D40008093AB048EC0E091D00481E08E0F80931D
:102D5000D0048091BB00F0E0E155FB4F808390915F
:102D6000D0048091CF046EC0E091D00481E08E0F3A
:102D70008093D0048091BB00F0E0E155FB4F80834D
:102D80008091AE0481116DC081E08093AD0484EA2E
:102D900061C083E08093AC041092AA04CFCF8091ED
:102DA000AA04803208F051C0E091AA0481E08E0F9D
:102DB0008093AA048091BB00F0E0E657FB4F80832C
:102DC000BDCF85EC8093BC001092AC048091AA0426
:102DD000803230F4E091AA04F0E0E657FB4F108215
:102DE0006091AA0470E0E0918804F09189048AE877
:102DF00094E009951092AA0436C084E08093AC0454
:102E00001092870410928604E0918404F091850466
:102E1000099580918604811105C081E08093860424
:102E200010926404E091870481E08E0F8093870400
:102E3000F0E0EC59FB4F80818093BB0090918704B8
:102E400080918604981708F479CF85E88093BC00B8
:102E50000AC085EC8093BC001092AC0404C01092B0
:102E6000AB040E948015FF91EF91BF91AF919F91AC
:102E70008F917F916F915F914F913F912F910F9023
:102E80000FBE0F901F901895DC0180E0615090F00C
:102E90009D919827E92FEF70F0E0E958F54F2491C4
:102EA00092959F70E92FF0E0E957F54FE4918E2F4E
:102EB0008227ECCF0895CF92DF92EF92FF920F938B
:102EC0001F93CF93DF931F92CDB7DEB76C01E62E31
:102ED00008E010E0FF24F39461E08F2D8E2109F4C7
:102EE00060E0C60149830E949B0AFF0C0150110952
:102EF00049810115110581F7411115C0F894D601DA
:102F00001196ED91FC91129791818C918095892376
:102F100081831196ED91FC91129792818C9180950D
:102F20008923828378940F90DF91CF911F910F9125
:102F3000FF90EF90DF90CF900895CF92DF92EF92C5
:102F4000FF920F931F93CF93DF931F92CDB7DEB7FE
:102F50008C01F62E40E065E579830E945B17CF2C4B
:102F60007981D72E760188E0E80EF11CF601619197
:102F70006F0140E0C8010E945B17CE14DF04B1F777
:102F80000F90DF91CF911F910F91FF90EF90DF9005
:102F9000CF900895FC0190810180F281E02DF8949A
:102FA0008181892B81832281892F80952823228307
:102FB000A7E0B0E01197F1F7218182238183A3E29A
:102FC000B0E01197F1F780817894EFECF0E0319761
:102FD000F1F7982381E009F480E00895833081F0CF
:102FE00028F4813099F08230A1F008958730A9F05B
:102FF0008830B9F08430D1F4809180008F7D03C097
:10300000809180008F7780938000089584B58F77BA
:1030100002C084B58F7D84BD08958091B0008F7704
:1030200003C08091B0008F7D8093B00008953FB7BA
:10303000F8948091E4049091E504A091E604B091A5
:10304000E70426B5A89B05C02F3F19F00196A11DE6
:10305000B11D3FBFBA2FA92F982F8827820F911D2E
:10306000A11DB11DBC01CD0142E0660F771F881F75
:10307000991F4A95D1F708950895CF92DF92EF9264
:10308000FF920F931F93CF93DF936C017A018B0113
:10309000C0E0D0E0CE15DF0589F0D8016D918D013B
:1030A000D601ED91FC910190F081E02DC6010995CA
:1030B000892B11F47E0102C02196ECCFC701DF916C
:1030C000CF911F910F91FF90EF90DF90CF900895D7
:1030D000CF92DF92EF92FF920F931F93CF93DF93E4
:1030E0001F92CDB7DEB77C018C01C12CD12CF80129
:1030F00061918F01C60169830E94292B698168173C
:1031000019F0C6010E94312BFFEFCF1ADF0A81E1CF
:10311000C816D10461F7C7010F90DF91CF911F91BD
:103120000F91FF90EF90DF90CF900895AF92BF92F4
:10313000CF92DF92EF92FF920F931F93CF93DF9383
:103140001F92CDB7DEB75C01D62EE72EFC01858538
:10315000811105C0C5010E94CA0A811106C0F5018E
:1031600013861586148680E065C040E060EFC501D7
:103170000E945B1701E0F12CC12C11E0C5010E94F7
:10318000CA17682FC50169830E94CA176981613017
:1031900019F48130B9F433C04F2D50E068131BC0CF
:1031A000F5018385181730F4E40FF51F8381802320
:1031B00049F402C0181731F060E0193058F4F501F5
:1031C000148708C0F501EF0DF11D8381802B8383E7
:1031D00061E009C0C12EF501E40FF51F9381802F36
:1031E000809589238383C5010E949B0A1F5F000F7E
:1031F00011F4F39401E0F7E0FF1508F0BFCF1134AC
:1032000008F4ADCFF501C386C11002C081E0858707
:10321000F5018381882309F4A2CFD5011396ED2D02
:10322000FE2D9501255F3F4F8D918193A217B30726
:10323000D9F781E00F90DF91CF911F910F91FF900F
:10324000EF90DF90CF90BF90AF9008950F931F93B2
:10325000CF938B01DC011696ED91FC9117971386A5
:1032600015861486DF011B9633961E92AE17BF0794
:10327000E1F7B801DC0116968D919C9117970E9499
:103280009618C82F882339F067E0C8010E944417B8
:10329000F80197818913C0E08C2FCF911F910F9176
:1032A0000895CF93DF93282F30E0F901E555F04FD3
:1032B0008491F901E154F04FD491F901E352F04FB8
:1032C000C491CC2391F081110E94EE17EC2FF0E015
:1032D000EE0FFF1FEF55F04FA591B491EC91ED2348
:1032E00081E090E021F480E002C080E090E0DF9196
:1032F000CF9108951F93CF93DF93282F30E0F901EA
:10330000E555F04F8491F901E154F04FD491F90162
:10331000E352F04FC491CC23C9F0162F81110E94C3
:10332000EE17EC2FF0E0EE0FFF1FED52F04FA591DE
:10333000B4918FB7F894111105C09C91ED2FE095D1
:10334000E92302C0EC91ED2BEC938FBFDF91CF917D
:103350001F910895CF93DF9390E0FC01E154F04F6B
:103360002491FC01E352F04F8491882361F190E0B5
:10337000880F991FFC01E956F04FC591D491FC01CB
:10338000ED52F04FA591B491611109C09FB7F89427
:103390008881209582238883EC912E230BC0623094
:1033A00061F49FB7F8943881822F809583238883B6
:1033B000EC912E2B2C939FBF06C08FB7F894E88119
:1033C0002E2B28838FBFDF91CF9108958F929F92EC
:1033D000AF92BF92CF92DF92EF92FF92CF93209164
:1033E000FF022D3021F02F3F09F0F0C104C0E1EFC2
:1033F000FFE0C49172C02DE02093FF02E1EFFFE0F7
:10340000C491CF3F09F4E2C1C13009F1C23009F4DF
:1034100041C0C11162C014BC15BC24B5226024BDDA
:1034200025B5216025BDEAEEFFE0E491F0E0EE0F66
:10343000FF1FED52F04F259134913093F00420930B
:10344000EF04ECECFFE0E491E093EE0448C010924E
:1034500080001092810020918100286020938100DB
:1034600020918100216020938100EAEEFFE0E49149
:10347000F0E0EE0FFF1FED52F04F259134913093A5
:10348000ED042093EC04ECECFFE0E491E093EB041A
:10349000C1E025C01092B0001092B1002091B000A0
:1034A00022602093B0002091B10021602093B100F0
:1034B000EAEEFFE0E491F0E0EE0FFF1FED52F04F77
:1034C000259134913093EA042093E904ECECFFE079
:1034D000E491E093E804C2E002C0C7FD77C14C016B
:1034E00061E08DE00E94AA19A12CB12C8C2F8D7F58
:1034F00009F0A9C060E072E18AE790E0A5019401BB
:103500000E94412D69017A01BA01A9014150510976
:10351000610971094F3F51056105710509F008F412
:1035200045C060E472E48FE090E0A50194010E9440
:10353000412DBA01A9014150510961097109C230F7
:10354000E9F44F3F51056105710509F008F43CC1EC
:1035500060E970ED83E090E0A50194010E94412DA7
:10356000BA01A90141505109610971094F3F510543
:103570006105710509F0A8F583E05EC04F3F510574
:1035800061057105A9F0A0F068E478EE81E090E0B3
:10359000A50194010E94412DBA01A9014150510990
:1035A00061097109CC2309F4BEC006C181E001C0E4
:1035B00082E0CC2389F040C0D701C6012AE0B5954E
:1035C000A795979587952A95D1F7AC01BD014150F4
:1035D00051096109710985E095B5987F892B85BDF1
:1035E00066C068E478EE81E090E0A50194010E9455
:1035F000412DBA01A90141505109610971094F3F9B
:1036000051056105710509F008F48BC064E274EF9F
:1036100080E090E0A50194010E94412DBA01A9012A
:1036200041505109610971094F3F5105610571050B
:1036300011F008F097C085E09091B100987F892B38
:103640008093B1002EC060E072E18AE790E0A501AE
:1036500094010E94412DBA01A9014150510961090B
:1036600071094115510581E06807710580F068E432
:1036700078EE81E090E0A50194010E94412DBA010D
:10368000A901415051096109710993E001C091E01C
:10369000C13039F480918100887F892B809381002B
:1036A00018C0C130B1F0C23049F1C1118FC047BD5F
:1036B0008FEF9FEFDC018093F9049093FA04A093BD
:1036C000FB04B093FC0480916E00826080936E00D6
:1036D0007DC050938900409388008FEF9FEFDC01FD
:1036E0008093F5049093F604A093F704B093F80444
:1036F00080916F00826080936F0068C04093B30038
:103700008FEF9FEFDC018093F1049093F204A0937C
:10371000F304B093F4048091700082608093700091
:1037200055C084E089CF4F3F510561057105C1F057
:10373000B8F062E17AE780E090E0A50194010E9490
:10374000412DBA01A90141505109610971094F3F49
:1037500051056105710511F008F02ECF84E03CCFD2
:1037600083E03ACF62E17AE780E090E0A50194013E
:103770000E94412DBA01A901415051096109710905
:103780004F3F510561057105A9F0A0F0D701C601B1
:103790003AE0B595A795979587953A95D1F7AC01FD
:1037A000BD014150510961097109CC2309F413CFBE
:1037B00087E042CF86E0FDCE4F3F510561057105A0
:1037C00009F080F684E0F5CE82E036CFCF91FF900D
:1037D000EF90DF90CF90BF90AF909F908F90089523
:1037E0008F929F92AF92BF92CF92DF92EF92FF9211
:1037F0006B017C010E9417184B015C01C114D104BC
:10380000E104F104F1F00E941718DC01CB018819E2
:103810009909AA09BB09883E9340A105B10570F337
:1038200021E0C21AD108E108F10888EE880E83E091
:10383000981EA11CB11CC114D104E104F10419F7B4
:10384000DDCFFF90EF90DF90CF90BF90AF909F9033
:103850008F9008952FB7F8946091E0047091E1047F
:103860008091E2049091E3042FBF08951F920F927C
:103870000FB60F9211242F933F938F939F93AF9383
:10388000BF938091E0049091E104A091E204B09193
:10389000E3043091DF0423E0230F2D3720F4019659
:1038A000A11DB11D05C026E8230F0296A11DB11D63
:1038B0002093DF048093E0049093E104A093E2045A
:1038C000B093E3048091E4049091E504A091E604B0
:1038D000B091E7040196A11DB11D8093E40490937B
:1038E000E504A093E604B093E704BF91AF919F91E4
:1038F0008F913F912F910F900FBE0F901F901895B1
:103900001F920F920FB60F9211242F933F934F9354
:103910005F936F937F938F939F93AF93BF93EF9337
:10392000FF93E091FD02F091FE020995FF91EF9166
:10393000BF91AF919F918F917F916F915F914F91C7
:103940003F912F910F900FBE0F901F9018951F92CF
:103950000F920FB60F9211242F933F934F935F93C3
:103960006F937F938F939F93AF93BF93EF93FF9347
:10397000E091FB02F091FC020995FF91EF91BF915C
:10398000AF919F918F917F916F915F914F913F91F7
:103990002F910F900FBE0F901F9018959091FF02DE
:1039A000981324C0E1EFFFE0E4919FEF9093FF02B2
:1039B000E130B9F098F0E230C9F4909170009D7F49
:1039C0009093700091E09093B0009091B100987F37
:1039D00094609093B1001092B30008C010926E00F2
:1039E00005C090916F009D7F90936F0060E00C94F4
:1039F0007A191F920F920FB60F9211242F933F93B3
:103A00004F935F936F937F938F939F93AF93BF93E6
:103A1000EF93FF938091F1049091F204A091F3044D
:103A2000B091F404892B8A2B8B2B51F18091E804FF
:103A3000E091E904F091EA049081892780838091E4
:103A4000F1049091F204A091F304B091F4041816DB
:103A500019061A061B06C4F48091F1049091F20431
:103A6000A091F304B091F4040197A109B1098093E6
:103A7000F1049093F204A093F304B093F40404C00F
:103A80008091FF020E94CE1CFF91EF91BF91AF91F8
:103A90009F918F917F916F915F914F913F912F9166
:103AA0000F900FBE0F901F901895EF92FF920F93FB
:103AB0001F93CF93DF938C017B01C0E0D0E0F7012F
:103AC000EC0FFD1F6491662361F0D801ED91FC912C
:103AD0000190F081E02DC8010995892B11F0219604
:103AE000EECFCE01DF91CF911F910F91FF90EF901C
:103AF00008956115710579F0FB0101900020E9F747
:103B00003197AF01461B570BDC01ED91FC91028010
:103B1000F381E02D099480E090E008954F925F9248
:103B20006F927F92EF92FF920F931F93CF93DF9349
:103B3000CDB7DEB7A1970FB6F894DEBF0FBECDBFED
:103B40007C01FA01CB0119A2223008F42AE08E018F
:103B50000F5D1F4F422E512C612C712CBF01A30110
:103B600092010E941F2DF901CA01015011096A300A
:103B700014F4605D01C0695CD8016C93232B242B85
:103B8000252B61F7B801C7010E94791DA1960FB6D8
:103B9000F894DEBF0FBECDBFDF91CF911F910F9183
:103BA000FF90EF907F906F905F904F9008950F93EC
:103BB0001F93CF93DF93EC010E94551D8C016CE4A1
:103BC00074E0CE010E94791D800F911FDF91CF918B
:103BD0001F910F910895CF93DF93CDB7DEB7629712
:103BE0000FB6F894DEBF0FBECDBF789484B5826067
:103BF00084BD84B5816084BD85B5826085BD85B591
:103C0000816085BD80916E00816080936E0010920E
:103C10008100809181008260809381008091810089
:103C2000816080938100809180008160809380001A
:103C30008091B10084608093B1008091B000816078
:103C40008093B00080917A00846080937A008091A4
:103C50007A00826080937A0080917A0081608093FC
:103C60007A0080917A00806880937A001092C10077
:103C700081E190E00E947A2D8C0181E1D8011D92B2
:103C80008A95E9F710935604009355046801E12CD6
:103C9000F12CC7010E94292BF60181936F01FFEFE0
:103CA000EF1AFF0A21E1E216F10499F746E050E02D
:103CB0006EE773E0C8010E94AC2E892B19F181E1F7
:103CC000D8011D928A95E9F786E0EEE7F3E0D80186
:103CD00001900D928A95E1F781E0F8018683878350
:103CE00080879EE1918794E0928722E0238725E0F8
:103CF0002487958786878AE0878788E2808BC8013A
:103D00000E9468188AE091E00E947A2D8C01DC0103
:103D100013961C921E92129724E530E015963C9360
:103D20002E93149780E390E017969C938E931697AA
:103D300019963C932E9318971B969C938E931A97E3
:103D400055961C9255971D961C921E921C971F9675
:103D50001C921E921E9781E054968C9354972FEFDD
:103D60003FEF53963C932E93529751963C932E934C
:103D7000509756968C93569757961C9257975996EC
:103D80001C921E92589787E05A968C935A9788E017
:103D90005B968C935B9786E05C968C935C9784E053
:103DA0005D968C935D9785E05E968C935E978AE333
:103DB00093E011969C938E938FEF95968C93F801D8
:103DC000F99680E2DF011D928A95E9F7B09611829B
:103DD0001082E355FF4F8AE08083319683E1808330
:103DE00031968CE18083319685E2808361E089E0C1
:103DF0000E94AA1989E0F80185A381E090E00E9461
:103E00007A2D7C0161E08DE00E94AA1960E08DE0CE
:103E10000E947A19D801D896FC92EE92D797109307
:103E20006204009361045A968C915A978F3F31F443
:103E30005B969C919F3F11F40C94462861E00E9490
:103E4000AA1961E0F801838D0E94AA19D8015B9636
:103E50008C915B97082E000C990BFC01E352F04FFC
:103E6000E491F0E0EE0FFF1FED52F04F25913491F9
:103E7000F80132A321A3FC01E154F04FE4919496A0
:103E8000EC9394975A968C915A97082E000C990BA4
:103E9000FC01E352F04FE491F0E0EE0FFF1FED5212
:103EA000F04F25913491F80130A3278FFC01E154A4
:103EB000F04FE4919396EC9361E0F801848D0E94B9
:103EC000AA19D8015D968C9118161CF461E00E9425
:103ED000AA19F801868D18161CF461E00E94AA192F
:103EE000D8015D968C91181674F460E00E947A19DE
:103EF00064EF71E080E090E00E94F01B61E0F80167
:103F0000858D0E947A1961E2C8010E94B50B64E1B7
:103F1000C8010E94B50B68EAC8010E94B50B60E2B7
:103F2000C8010E94B50B6CE0C8010E94B50BC80126
:103F30000E94D50BC0905504D0905604D601179618
:103F40006C91FF24F3946F25F80185A10E947A19E2
:103F5000D60119966C91C8010E946D0CF60162851C
:103F6000C8010E94F60EF801E25AFF4F84E893E080
:103F700091838083329684E090E0918380833296AF
:103F8000C8018C9691838083329610823196F0829C
:103F900031961182108232961182108232968EE80A
:103FA00093E091838083329622E030E03183208356
:103FB0003296C801C19691838083329610823196E1
:103FC0008FEF808331961182108232961182108297
:103FD00032964CE953E051834083329631832083FB
:103FE0003296A8014E5C5F4F518340833296108217
:103FF000319680833196118210823296118210821E
:10400000329641E953E051834083329631832083D5
:104010003296A8014D5C5F4F518340833296F08207
:1040200031968083319611821082329611821082ED
:10403000329648EA53E0518340833296CC24C394AD
:10404000D12CD182C0823296A8014C5C5F4F518343
:1040500040833296F082319693E6908331961182B6
:104060001082329611821082329644EB53E05183D3
:104070004083329631832083329698012B5C3F4FE8
:10408000318320833296F08231968083319611827B
:104090001082329611821082329682EC93E09183E4
:1040A0008083329683E090E0918380833296C801CA
:1040B000C69691838083329688E2808331968AE522
:1040C000808331961182108232961182108232964C
:1040D00080ED93E0918380833296D182C0823296C4
:1040E000C8018F96918380833296108231968FE734
:1040F0008083319684E89CE091838083329611829C
:10410000108232968DED93E0918380833296D18236
:10411000C0823296C801C096918380833296108205
:10412000319687E08083319680E19FE091838083A0
:10413000329611821082329686EE93E091838083CC
:104140003296118210823296C8018D9691838083B7
:10415000329610823196F082319683ED98E0918309
:104160008083329611821082329680EF93E09183A1
:1041700080833296118210823296C8018E96918386
:104180008083329610823196F082319611821082AD
:10419000329611821082D801AE51BF4F8CE0E6E01A
:1041A000F3E001900D928A95E1F7D801A251BF4F3B
:1041B0008CE0E2E1F3E001900D928A95E1F7D801FD
:1041C000A650BF4F8CE0EEE1F3E001900D928A958E
:1041D000E1F7F801E55AFF4F1082319683E08083C2
:1041E000319610820091610410916204C8010E940E
:1041F000A10BD8015496FC9254975396DC92CE9220
:1042000052975196DC92CE92509785E090E01D96A1
:104210009C938E931C971F961C921E921E976CE681
:1042200079E0C8010E94551D58E0C52ED12CF80137
:10423000D586C486D786C68660E679E0C8010E9426
:10424000551DD8011D96DC92CE921C9789E190E015
:104250001F969C938E931E976EE579E0C8010E948D
:10426000551D82E0F801848B80E190E0958784877A
:1042700082E190E0978786876801F9E3CF0ED11C31
:104280006091550470915604C6010E94B92EB60182
:10429000C8010E94791D66EF79E0C8010E940016EE
:1042A000D8015496FC9254978AE090E01D969C9316
:1042B0008E931C9788E290E01F969C938E931E9796
:1042C00061E579E0C8010E94551D8FE090E0F8019A
:1042D000958784878EE290E09787868765E479E00A
:1042E000C8010E94551DC8010E94D50B87E090E0CF
:1042F0000E947A2D7C018EE090E00E947A2D6C0164
:1043000060E080E10E94AA19EFECFFE0E491D601A1
:10431000EC93EDEEFFE0E491F0E0EE0FFF1FEF55C0
:10432000F04F85919491F6019283818313861586CF
:1043300014865601FBE0AF0EB11C460123E0820E4D
:10434000911CF5011292E815F905E1F788E090E07B
:104350000E947A2D8C01DC011796DC92CE92169782
:1043600014961C92149715961C9215971C9289E02E
:1043700011968C93119781E012968C931297139655
:104380008C93139753961C921E925297F7011183A8
:104390000083D5011E925D01A815B905D1F7CC2483
:1043A000C394BE016F5F7F4FD80116968D919C918B
:1043B00017970E949618882309F46CC067E0CE0115
:1043C00001960E94441798858913EBCFF8018081EC
:1043D000811125C0868197810E94CA0ABE016F5F44
:1043E0007F4FD80116968D919C9117970E949D172B
:1043F00040E064EBF801868197810E945B17D80149
:1044000016968D919C9117970E94CA17D82EF80185
:10441000868197810E94CA0ADD2009F478C6D801F6
:104420001196DC908981803109F477C6BE016F5FF7
:104430007F4FC8010E945A0B8D1518F4F801818135
:104440000BC08981803111F48CE006C0BE016F5F22
:104450007F4FC8010E945A0BD80111968C93119777
:1044600014968C9114978F5F14968C93898188325F
:1044700061F030F4803149F0823209F092CF05C00A
:104480008B3319F0823409F08CCFF80185818F5F6E
:10449000858387CFF0926004E0925F0488E190E02A
:1044A0000E947A2D8C0183E0F80180838EE0818365
:1044B0008FE082831382158214821782168281E034
:1044C0008087128611868387158614868687108AD0
:1044D0001786118A128A138A148A158A62E083E089
:1044E0000E94AA1962E0F80181810E94AA1962E083
:1044F000D80112968C910E94AA19F80180810E941D
:104500005119D80113962C91139730E08217930715
:1045100031F483E090E017969C938E931697F80100
:1045200081810E945119D80113962C91139730E084
:104530008217930749F416968D919C911797B1E0D5
:104540008B27F80197838683D80156961C9256973D
:1045500057961C925797FF24F3941B96FC92C80120
:104560000E94900FF801868B10935404009353041B
:10457000F68613861286118680E180938100109260
:104580008000F0925A0480E49FE190935904809354
:104590005804909387008093860081E18093810086
:1045A00088E899E09093510480935004F0926F0052
:1045B00060E08AE00E94AA1962E082E00E94AA19E3
:1045C00061E08CE00E94AA1960E08CE00E947A19F8
:1045D00061E08BE00E94AA1960E08BE00E947A19EA
:1045E00061E081E10E94AA1960E081E10E947A19EC
:1045F000E0916104F0916204E75AFF4F81E090E09E
:104600009183808368EB7BE080E090E00E94F01B68
:104610008AE00E945119182F80910201181709F49D
:1046200066C0113009F063C0811161C0E09161047E
:10463000F0916204E75AFF4F21E030E0318320839C
:1046400061E08BE00E947A19E0915504F0915604E4
:104650008681882331F14AED58E05093FC02409363
:10466000FB02809169008C7F826080936900E89AE8
:1046700010920101109200011092520480910001E9
:1046800090910101049729F08BE891E00197F1F7EF
:10469000F5CFE8988CE398E19093FC028093FB02BD
:1046A00012C061E08CE00E947A198AE00E945119E0
:1046B000892B29F08BE39FE10197F1F7F6CF60E0BA
:1046C0008CE00E947A1960E08CE00E947A19A4E0E4
:1046D000B0E0B0930101A093000160E08BE00E9484
:1046E0007A1964E670E080E090E00E94F01B10937D
:1046F0000201E0905F04F0906004F70116820E94CE
:104700002A1C00915B0410915C0420915D0430919F
:104710005E04DC01CB01801B910BA20BB30B893E25
:104720009340A105B10508F4FFC0D7010D911C917C
:10473000BE016F5F7F4FC8010E94261989818031B9
:1047400059F0BE016F5F7F4FC8010E945A0B282F9E
:10475000882309F45BC001C02CE0F80186819781B1
:104760002A8B0E94CA0ABE016F5F7F4FD80116963E
:104770008D919C9117970E949D17F801408164E4E8
:10478000868197810E945B17D80112968C912A89A5
:104790008823E1F12950233048F4E22FF0E0EE0FB6
:1047A000FF1FEA59FC4FC080D18004C09EEEC92E85
:1047B00092E0D92EF8018381882311F18081811143
:1047C0001FC00E942A1C4B015C012601DD0C6608FB
:1047D0007708D80116968D919C9117970E94CA1759
:1047E0008130A1F00E942A1CDC01CB0184199509BB
:1047F000A609B70988159905AA05BB0550F306C097
:10480000B601DD0C880B990B0E94F01BF7010081AB
:104810001181BE01665F7F4FC8010E942619811178
:1048200007C0812C912C8EEFA82E82ECB82E5DC093
:10483000D80116968D919C9117970E94CA0A8823D9
:1048400009F468C4AE014F5F5F4FBE01665F7F4FE2
:10485000C8010E94000B882309F45CC468E0CE0103
:1048600001960E9444179985891354C46981B8E060
:104870006B9FB00111248A81282F30E0322F22272C
:10488000330F330F330F262B372B8A858031C9F432
:10489000688570E08F81FB01E81BF109CF019695D7
:1048A000982F8827979587950E940B2D6051710945
:1048B000207F13E0220F331F1A95E1F7620F731F59
:1048C00001C0B9016138F4EE7F070CF4AACF072EBE
:1048D000000C880B990B0E94E92B20E030E040E0AF
:1048E0005CE30E949E2C4B015C0111E0A501940148
:1048F000D70112966D917D918D919C9115970E9493
:10490000AC2B811101C010E0F701168382829382E3
:10491000A482B5820E942A1C60935B0470935C049D
:1049200080935D0490935E04F7018681882309F4E7
:104930003FC0E0915504F0915604608970E06A50E0
:104940007109072E000C880B990B0E94E92B4B0173
:104950005C01D70112964D905D906D907C901597FB
:1049600020E030E040E05FE3C301B2010E94402B51
:104970009B01AC01C501B4010E94992C18163CF4AE
:1049800081E10E945119892B99F060E00EC0A301CA
:104990009201C501B4010E94AC2B18164CF081E1C4
:1049A0000E945119892B21F461E081E10E947A195A
:1049B0000091610410916204E0915504F091560455
:1049C000608970E080E090E00E94E92B9B01AC01DF
:1049D000F70162817381848195810E94992C9801ED
:1049E000275A3F4F6901D90187FD5BC08D919C918A
:1049F0001197892BA1F5E4E0F0E0ED93FC93C80159
:104A00000E94A10BE1E0F0E0D8015396FC93EE93F5
:104A100052975196FC93EE93509781E054968C9365
:104A200061EA79E0C8010E94D71D64E979E0C80114
:104A30000E94D71D68E879E0C8010E94D71D69E788
:104A400079E0C8010E94D71D40E0B7016E5F7F4F3B
:104A5000C8010E94C20EC8010E94D50B2BC088EE6F
:104A600093E00E94E6196CE271E080E090E00E9421
:104A7000F01B88EE93E00E94E6196CE271E080E0A2
:104A800090E00E94F01B88EE93E00E94E6196CE231
:104A900071E080E090E00E94F01B8DE00E94CE1C4F
:104AA00009C08D919C911197049721F4E1E0F0E009
:104AB000ED93FC93D601AD90BC90B1E0AB16B10480
:104AC00009F048C1C8010E94A10B60E070E0C80174
:104AD0000E94001681E0F801848B118A108AB38A43
:104AE000A28A1586148617861686E0915504F091E1
:104AF00056048681811103C06DEF79E002C06CE03D
:104B00007AE0C8010E94551DE1E0F0E0D80151961D
:104B1000FC93EE93509753961C921E925297E091FD
:104B20005504F09156048681882309F4E2C066EFAB
:104B300079E0C8010E940016D8011D961C921E92B1
:104B40001C974DE0A42EB12C1F96BC92AE921E97DE
:104B500060EF79E0C8010E94551D5EE2252E312CE0
:104B6000F80135862486B786A68668EE79E0C80106
:104B70000E94551D61EE79E0C8010E940016D8011F
:104B80001D961C921E921C9764E1862E912C1F96F6
:104B90009C928E921E9768ED79E0C8010E94551D87
:104BA00070E2672E712CF80175866486978686867A
:104BB000E0915504F0915604438550E060E070E0C8
:104BC0002AE0C8010E948E1DD8011D961C921E92DB
:104BD0001C97EAE1AE2EB12C1F96BC92AE921E97A6
:104BE00061ED79E0C8010E94551DF8017586648663
:104BF000B786A686E0915504F0915604448550E0AE
:104C000060E070E02AE0C8010E948E1DD8011D9668
:104C10001C921E921C971F967C926E921E976BECB4
:104C200079E0C8010E94551DF80175866486778673
:104C30006686E0915504F0915604458550E060E0A9
:104C400070E02AE0C8010E948E1DD8011D963C929A
:104C50002E921C971F969C928E921E9765EC79E07F
:104C6000C8010E94551DF80135862486B786A686A0
:104C70006EEB79E0C8010E94551DE0915504F0915A
:104C800056048685A6E46A2E712CD8011D967C9266
:104C90006E921C971F969C928E921E97823080F483
:104CA0006CEB79E0C8010E94551DF8017586648699
:104CB000B786A6866AEB79E0C8010E94551D19C027
:104CC000468550E060E070E02AE0C8010E948E1D39
:104CD000F80175866486B786A686E0915504F09142
:104CE0005604478550E060E070E02AE0C8010E9469
:104CF0008E1D66EF79E0C8010E94001688E090E002
:104D0000D8011D969C938E931C9788E290E01F9685
:104D10009C938E931E9766EB79E0C8010E94551D07
:104D2000F801158614868DE290E09787868760EB00
:104D300079E0C8010E94551DC8010E94D50BB7013A
:104D40006E5F7F4F41E0C8010E94C20ED6011D92E6
:104D50001C9294C1AB2859F4F7018681882339F05D
:104D6000B7016E5F7F4F40E0C8010E94C20EE09025
:104D70005304F0905404D7011C96AD90BC901D973D
:104D80001C968D919C911D97039721F01D961C9266
:104D90001E921C97A114B10419F5C7010E94900F2F
:104DA000F7012789820F911D27FD9A959C01878B1A
:104DB00087FF02C081E0820F8595D70156969C91AE
:104DC000569798172CF456968C9380E090E00AC082
:104DD00089170CF053C1F701868B81E090E002C087
:104DE00082E090E0D6012D913C9121153105C9F466
:104DF000B5E0AB16B10409F041C122E030E0F601A4
:104E000031832083C8010E943A0ED8019696E09122
:104E10005504F091560481E101900D928A95E1F7D5
:104E200082C02230310509F06EC0F70123852223AC
:104E300019F0138612861186F5E0AF16B10409F554
:104E400083E090E0D6018D939C93F801E35AFF4FE5
:104E50008081F801BCE08B9FE00DF11D1124EE591B
:104E6000FF4F80819181892B21F4C8010E94A00C01
:104E700003C0C8010E94D90CF80186A50E94890CC4
:104E8000FDC00097E1F47801FDE5EF0EF11CD701BC
:104E90008C918823A1F1F80186A50E94890CD70185
:104EA0009C9191509C93F801E55AFF4F808198178F
:104EB00030F5815080833196808181501FC00197E9
:104EC00009F0DCC07801BDE5EB0EF11CF701808133
:104ED0008D30A9F0D8019E968C910E94890CF70123
:104EE00090819F5F908331978081891740F4D8012A
:104EF000A55ABF4F9C919F5F9C938F5F8083C80191
:104F00000E943A0EBBC02330310509F0B7C0F5E06E
:104F1000AF16B10461F4E2E0F0E0D601ED93FC934A
:104F2000C8010E943A0ED8019E968C91A7CFF70136
:104F30002385211102C021E023879801235A3F4F86
:104F40007901009709F03FC0D9012C91822F90E0A0
:104F5000F801BCE02B9FE00DF11D1124DF01A05AE8
:104F6000BF4F2D913C912430310534F4213031056F
:104F70003CF4232BA9F06EC02430310589F06AC0BF
:104F8000DF01AE59BF4F0D90BC91A02D8C91EC5913
:104F9000FF4F9081981708F05DC081508C9356C0E8
:104FA0002CE0289FF001299FF00D1124E00FF11F44
:104FB000EE59FF4F0190F081E02D8081882309F4A4
:104FC00049C010822DC0019709F044C0F901208129
:104FD000822F90E0F8013CE0239FE00DF11D1124A9
:104FE000DF01A05ABF4F2D913C912430310534F49C
:104FF000213031053CF4232BB9F02CC0243031058D
:1050000099F028C0DF01AE59BF4F0D90BC91A02D83
:105010008C91EB59FF4F90818917E0F48F5F8C934F
:10502000D8019E968C9114C02CE0289FF001299FF6
:10503000F00D1124E00FF11FEE59FF4F0190F081A8
:10504000E02D8081811106C081E08083F80186A572
:105050000E94890CC8010E94D90CD7018C91F801DB
:10506000BCE08B9FE00DF11D1124EE59FF4F8081B4
:105070009181892B19F0C8010E94A00C80E090E07A
:10508000892B09F4C5CA0E940000C2CAFFB6F89471
:1050900080915704811127C0E7EEFFE08491E9EC8D
:1050A000FFE09491E82FF0E0EE0FFF1FE956F04F7C
:1050B000A591B491EC91E92321F461E08AE00E948A
:1050C0007A1961E08AE00E94AA198CB580618CBDD2
:1050D0008CB580648CBD61E08DE00E94AA1961E00E
:1050E0008BE00E94AA19809157048F5F8093570428
:1050F000FFBE8CB58C7F8CBD8DB58E7F8DBD8CB584
:10510000837F8CBD8CB58F7D8CBD0C945C1FF801AA
:10511000C08285C960E874EED5CBFCE0FD1508F4CB
:105120008DC992C9E3EDF4E01382128288EE93E018
:10513000A0E0B0E084839583A683B78380E793E003
:10514000918380830895EF920F931F93CF93DF9302
:10515000E80147FD02C034E001C034E1E42F440F10
:10516000FF0BF7FF03C0F195E195F109E32E022F44
:105170002E2FAE010E94C328CE01DF91CF911F9147
:105180000F91EF9008954F925F926F927F929F924E
:10519000AF92BF92CF92DF92EF92FF920F931F9345
:1051A000CF93DF93CDB7DEB729970FB6F894DEBF64
:1051B0000FBECDBF6A01122FB02E2BE3201720F0B7
:1051C000FF24F394F00E02C0BCE3FB2E0F2D27E06A
:1051D000AE014F5F5F4F0E94512AAC018981982F29
:1051E0009970913031F0E1FC06C0E0FE06C090E21B
:1051F00005C09DE203C09BE201C090E0EE2DE0718E
:1052000083FF3CC0911102C083E001C084E081179C
:1052100018F4212F281B01C020E0E1110BC0F6017A
:10522000822F30E2882319F031938150FBCFC20ED8
:10523000D11C20E0992329F0D6019C93F6013196E8
:105240006F01C6010396E2FE0AC03EE4D6013C931C
:1052500041E411964C93119712963C9306C03EE69A
:10526000F601308341E641833283FC01322F40E274
:10527000332309F442C041933150FACF82FF44C036
:10528000911102C083E001C084E0811718F4212F3E
:10529000281B01C020E0E1110BC0F601822F30E293
:1052A000882319F031938150FBCFC20ED11C20E02E
:1052B000992329F0D6019C93F60131966F01C6011E
:1052C0000396E2FE0BC039E4D6013C933EE411960E
:1052D0003C93119736E412963C9307C039E6F601E9
:1052E00030833EE6318336E63283FC01322F40E2E2
:1052F000332319F041933150FBCFFC01E20FF11D34
:1053000010828EEF9FEFB7C0F1E0911101C0F0E085
:105310006F2F70E01416150624F49A012F5F3F4F8B
:1053200002C021E030E0260F371FBB2029F06B2D93
:1053300070E06F5F7F4F02C060E070E0260F371FA4
:10534000612F70E0261737071CF4121B212F01C0B4
:1053500020E03E2D387159F4D601322F60E233231C
:1053600019F06D933150FBCFC20ED11C20E0FF230A
:1053700031F0D6019C93B6016F5F7F4F6B01E11155
:105380000BC0F601922F30E3992319F0319391501D
:10539000FBCFC20ED11C20E09F2D940F3A81782FB5
:1053A0007071A72E84FF03C0313309F49150191690
:1053B00024F4993018F098E001C091E0E42F852F93
:1053C00057FF02C0E0E080E06E2F782FE0E0F0E0D1
:1053D000AEE29A2E3A01691A71082A01461A570A52
:1053E0000B2D10E01195019511096F3F8FEF780794
:1053F00029F4D6019C92C60101966C014617570705
:1054000084F0661677066CF47F01E40CF51CA1E0CD
:10541000B0E0AC0FBD1FEA0EFB1ED7011196BC9089
:1054200002C090E3B92E615071093196C601019610
:105430007C016017710724F0D601BC926C01D5CFB6
:105440006417750741F4363320F4353321F4A11085
:1054500002C081E3B82EF601B082F701822F90E2FC
:10546000882319F091938150FBCFF701E20FF11DD2
:10547000108280E090E029960FB6F894DEBF0FBE50
:10548000CDBFDF91CF911F910F91FF90EF90DF90F3
:10549000CF90BF90AF909F907F906F905F904F9014
:1054A0000895283008F027E03327DA01990F311DDD
:1054B00087FD916000966105710539F432602E5FB9
:1054C0003D9330E32A95E1F708959F3F30F080380F
:1054D0007105610509F03C5F3C5F3D93913008F038
:1054E0008068911DDF93CF931F930F93FF92EF92EC
:1054F000192F987F9695E92F96959695E90FFF2796
:10550000EE53FF4F99273327EE24FF24A701E7012D
:1055100005900894079428F4360FE71EF81E491FDB
:10552000511D660F771F881F991F0694A1F70590DC
:10553000079428F4E70EF81E491F561FC11D770F68
:10554000881F991F661F0694A1F70590079428F4F9
:10555000F80E491F561FC71FD11D880F991F661FC0
:10556000771F0694A1F70590079420F4490F561F62
:10557000C71FD81F990F661F771F881F0694A9F7AA
:1055800084911095177041F0D695C795579547951A
:10559000F794E7941A95C1F7E8E6F0E0689415905F
:1055A000159135916591959105907FE27395E1187C
:1055B000F10A430B560BC90BD009C0F7E10CF11EE1
:1055C000431F561FC91FD01D7EF4703311F48A95F6
:1055D000E6CFE894015030F0080F0AF400270217D4
:1055E00008F4202F2395022F7A3328F079E37D9356
:1055F0002A95E9F710C07D932A9589F60694979528
:105600006795379517951794E118F10A430B560BD8
:10561000C90BD00998F023957E9173957A3308F0E1
:1056200070E37C932013B8F77E9170617D9330F026
:10563000839571E37D9370E32A95E1F71124EF9050
:10564000FF900F911F91CF91DF91992787FD909542
:105650000895F999FECF92BD81BDF89A992780B53A
:105660000895262FF999FECF1FBA92BD81BD20BDA6
:105670000FB6F894FA9AF99A0FBE01960895505809
:10568000BB27AA270E94572B0C945F2C0E94512CF9
:1056900038F00E94582C20F039F49F3F19F426F47A
:1056A0000C944E2C0EF4E095E7FB0C94482CE92F5B
:1056B0000E94702C58F3BA17620773078407950786
:1056C00020F079F4A6F50C94922C0EF4E0950B2EB4
:1056D000BA2FA02D0B01B90190010C01CA01A00144
:1056E0001124FF27591B99F0593F50F4503E68F19F
:1056F0001A16F040A22F232F342F4427585FF3CFE0
:10570000469537952795A795F0405395C9F77EF4B0
:105710001F16BA0B620B730B840BBAF09150A1F0F9
:10572000FF0FBB1F661F771F881FC2F70EC0BA0F7F
:10573000621F731F841F48F4879577956795B79507
:10574000F7959E3F08F0B0CF9395880F08F0992702
:10575000EE0F9795879508950E94242C08F481E018
:1057600008950E94B82B6894B1110C94932C08955D
:105770000E94782C88F09F5798F0B92F9927B7513D
:10578000B0F0E1F0660F771F881F991F1AF0BA95E5
:10579000C9F714C0B13091F00E94922CB1E0089585
:1057A0000C94922C672F782F8827B85F39F0B93F77
:1057B000CCF3869577956795B395D9F73EF4909598
:1057C0008095709561957F4F8F4F9F4F0895E89416
:1057D00009C097FB3EF490958095709561957F4F39
:1057E0008F4F9F4F9923A9F0F92F96E9BB279395E7
:1057F000F695879577956795B795F111F8CFFAF4F7
:10580000BB0F11F460FF1BC06F5F7F4F8F4F9F4F27
:1058100016C0882311F096E911C0772321F09EE885
:10582000872F762F05C0662371F096E8862F70E0EB
:1058300060E02AF09A95660F771F881FDAF7880FC5
:105840009695879597F90895990F0008550FAA0B1B
:10585000E0E8FEEF16161706E807F907C0F0121683
:105860001306E407F50798F0621B730B840B950B86
:1058700039F40A2661F0232B242B252B21F40895DB
:105880000A2609F4A140A6958FEF811D811D089578
:1058900097F99F6780E870E060E008959FEF80ECE3
:1058A000089500240A941616170618060906089586
:1058B00000240A9412161306140605060895092EEC
:1058C0000394000C11F4882352F0BB0F40F4BF2B5B
:1058D00011F460FF04C06F5F7F4F8F4F9F4F08959B
:1058E00057FD9058440F551F59F05F3F71F0479591
:1058F000880F97FB991F61F09F3F79F08795089576
:10590000121613061406551FF2CF4695F1DF08C094
:10591000161617061806991FF1CF869571056105B1
:1059200008940895E894BB2766277727CB0197F959
:1059300008950E94242C08F48FEF08950E94B12C42
:105940000C945F2C0E94512C38F00E94582C20F0AF
:10595000952311F00C94482C0C944E2C11240C948B
:10596000932C0E94702C70F3959FC1F3950F50E01B
:10597000551F629FF001729FBB27F00DB11D639F01
:10598000AA27F00DB11DAA1F649F6627B00DA11DA7
:10599000661F829F2227B00DA11D621F739FB00D4D
:1059A000A11D621F839FA00D611D221F749F3327BD
:1059B000A00D611D231F849F600D211D822F762F56
:1059C0006A2F11249F5750409AF0F1F088234AF033
:1059D000EE0FFF1FBB1F661F771F881F915050409F
:1059E000A9F79E3F510580F00C94482C0C94932C01
:1059F0005F3FE4F3983ED4F3869577956795B79526
:105A0000F795E7959F5FC1F7FE2B880F911D96953F
:105A1000879597F9089597FB072E16F4009407D001
:105A200077FD09D00E94602D07FC05D03EF49095CB
:105A300081959F4F0895709561957F4F0895A1E2DC
:105A40001A2EAA1BBB1BFD010DC0AA1FBB1FEE1FF8
:105A5000FF1FA217B307E407F50720F0A21BB30B43
:105A6000E40BF50B661F771F881F991F1A9469F7BF
:105A700060957095809590959B01AC01BD01CF011B
:105A80000895052E97FB1EF400940E94582D57FD93
:105A900007D00E941F2D07FC03D04EF40C94582D04
:105AA00050954095309521953F4F4F4F5F4F08954A
:105AB00090958095709561957F4F8F4F9F4F08957A
:105AC000AA1BBB1B51E107C0AA1FBB1FA617B70724
:105AD00010F0A61BB70B881F991F5A95A9F7809540
